:100000000C94E5070C940B080C940B080C940B084B
:100010000C940B080C940B080C940B080C940B0814
:100020000C940B080C940B080C940B080C940B0804
:100030000C940B080C9419200C940B080C940B08CE
:100040000C940B080C940B080C940B080C940B08E4
:100050000C940B080C940B080C940B080C940B08D4
:100060000C940B080C948E2D0C94DE2D0C940B0824
:100070000C940B080C940B080C940B080C940B08B4
:100080000C940B080C940B080C940B080C940B08A4
:100090000C940B080C940B080C940B080C940B0894
:1000A0000C940B080C940B080C940B080C940B0884
:1000B0000C940B080C940B080C94AF1F0C94532E4B
:1000C0000C940B080C940B080C940B080C940B0864
:1000D0000C940B080C944E530C940B080C940B08C6
:1000E0000C940B080C940B080C940B080C940B0844
:1000F0000C940B080C940B080C940B080C940B0834
:100100000C940B080C940B080C940B080C940B0823
:100110000C940B080C940B080C940B080C940B0813
:100120000C940B080C940B080C940B080C940B0803
:100130000C94E41F0C940B080C940B080C940B0803
:100140000C940B080C940B080C940B080C940B08E3
:100150000C940B080C940B080C940B080C940B08D3
:100160000C940B080C940B080C940B080C940B08C3
:100170000C940B080C940B080C940B080C940B08B3
:100180000C940B080C940B080C940B080C940B08A3
:100190000C940B080C940B080C940B080C940B0893
:1001A0000C940B080C940B080C940B080C947A1FFD
:1001B0000C9484540C940B080C940B080C940B08AE
:1001C0000C940B080C940B080C940B080C940B0863
:1001D0000C940B080C940B080C940B080C940B0853
:1001E0000C940B080C940B080C940B080C940B0843
:1001F0000C940B08BC1AC11AC61ACA1ACE1AD21A03
:10020000DB1ADF1AE31AB251BE511F522552AF5109
:10021000AF51AF51AF51AF51AF51C052C552C7529C
:10022000D552F4524572726F7220665F6F70656EC0
:1002300020696E205344496E666F2E6D61742E0ADC
:10024000004572726F7220665F6C7365656B206922
:100250006E2072656D61696E656420646174612EE3
:100260000A004572726F7220665F6C7365656B2061
:10027000696E205344496E666F2E6D61742E0A00BC
:100280004572726F7220696E20665F6C7365656B74
:1002900020696E207570646174655F66756E634376
:1002A0006E745F79206C6F6164206E657874206273
:1002B00075666665720A00726573203D202025759B
:1002C0000A004572726F7220696E20665F72656106
:1002D0006420696E207570646174655F66756E6315
:1002E000436E745F790A00726573203D2020257586
:1002F0000A004572726F7220696E20665F6C7365CA
:10030000656B20696E207570646174655F66756EDB
:1003100063436E745F780A00726573203D20202568
:10032000750A004572726F7220696E20665F726591
:10033000616420696E20696E207570646174655F08
:1003400066756E63436E745F780A00726573203D54
:10035000202025750A004572726F7220696E7075D3
:100360007420666F722066756E6374696F6E2063A9
:1003700068616E6E656C2E0A004572726F7220663F
:100380005F6F70656E20696E207365745F76656C53
:100390005F66756E6320592E0A004572726F722077
:1003A000665F7265616420696E207365745F76654F
:1003B0006C5F66756E6320592E0A0053657474690C
:1003C0006E672076656C6F636974792066756E63FD
:1003D00074696F6E20257520666F7220590A00457A
:1003E00072726F7220665F6F70656E20696E207327
:1003F00065745F76656C5F66756E6320582E0A00C3
:100400004572726F7220665F7265616420696E204A
:100410007365745F76656C5F66756E6320582E0A2F
:100420000053657474696E672076656C6F636974D8
:10043000792066756E6374696F6E2020257520665D
:100440006F7220580A004572726F7220696E707563
:100450007420666F722066756E6374696F6E2063B8
:1004600068616E6E656C2E0A004572726F7220664E
:100470005F6F70656E20696E207365745F706F7357
:100480005F66756E6320592E0A004572726F722086
:10049000665F72656164207365745F706F735F6619
:1004A000756E6320592E0A0053657474696E672057
:1004B000706F736974696F6E2066756E6374696FAF
:1004C0006E20257520666F7220590A004572726F82
:1004D0007220665F6F70656E20696E207365745F51
:1004E000706F735F66756E6320582E0A00457272D6
:1004F0006F7220665F72656164207365745F706FF0
:10050000735F66756E6320580A0053657474696E74
:100510006720706F736974696F6E2066756E63749F
:10052000696F6E20257520666F7220580A00577219
:100530006F6E672066756E6374696F6E20636861A5
:100540006E6E656C206E756D6265722E0A00536565
:100550007474696E672064656661756C7420667575
:100560006E6374696F6E20666F7220592E0A005395
:10057000657474696E672064656661756C74206665
:10058000756E6374696F6E20666F7220582E0A0054
:100590002062656E63685F74696D65203D20256C1F
:1005A00075206D732C206672616D655F7261746574
:1005B000203D2025750A0043616E6E6F74206669C8
:1005C0006E6420746865206861726477617265206A
:1005D000636F6E6669672066696C65206F6E207454
:1005E000686520534420636172642E0A005375636A
:1005F0006365737366756C6C79206C6F61642074CD
:10060000686520686172647761726520636F6E66E9
:1006100069672066696C6520746F20454550524FAC
:100620004D0A004572726F72206F70656E696E6759
:10063000207061747465726E2066696C650A00458D
:1006400072726F722072656164696E6720696E20D4
:100650007061747465726E2066696C650A00202092
:10066000785F6E756D203D2025750A2020795F6EBC
:10067000756D203D2025750A20206E756D5F7061B7
:100680006E656C73203D2025750A202067735F76A8
:10069000616C7565203D2025750A20726F775F6358
:1006A0006F6D7072657373696F6E203D2025750ADA
:1006B0000053657474696E67207061747465726E3E
:1006C0002025753A0A00524553203D2025752C20DF
:1006D000665F6E756D3D2025752C206F66667365AF
:1006E00074203D20256C750A004572726F72206976
:1006F0006E20665F6C7365656B20696E206665743D
:1007000063685F646973706C61795F6672616D655F
:10071000210A00524553203D2025752C20665F6E2E
:10072000756D3D2025752C20636E743D2025750A5E
:10073000004572726F7220696E20665F7265616437
:1007400020696E2066657463685F646973706C61AC
:10075000795F6672616D65210A0053756363657325
:10076000732073657420746865206E6577206C61F2
:10077000736572207061747465726E2E0A00736501
:10078000745F706F736974696F6E3A20696E646527
:10079000785F783D2025752C2020696E6465785F30
:1007A000793D2025752C20616E64206672616D652F
:1007B0005F6E756D3D2025750A0066756E63746900
:1007C0006F6E205920757064617465206672657162
:1007D00075656E6379203D2025752E0A0066756E5D
:1007E0006374696F6E20582075706461746520664B
:1007F00072657175656E6379203D2025752E0A003E
:10080000526573657420636F6E74726F6C6C657281
:1008100020746F20776F726B20696E20746865207A
:1008200050432064756D70696E67206D6F6465213B
:100830000A00526573657420636F6E74726F6C6C1E
:10084000657220746F20776F726B20696E207468F8
:100850006520636F6E74726F6C6C6572206D6F646F
:1008600065210A004144435F76616C7565203D2037
:100870002025643A0A0043757272656E74207665AD
:100880007273696F6E206E756D6265722069732078
:1008900025732E0A006D6573736167655F6C656E05
:1008A000677468203D2025750A0043757272656E75
:1008B0007420776F726B696E67206D6F6465206955
:1008C00073207468652050432064756D70696E678D
:1008D000206D6F6465210A0043757272656E742025
:1008E000776F726B696E67206D6F64652069732026
:1008F00074686520436F6E74726F6C6C6572206DE6
:100900006F6465210A003F3F3F0A00204E4F54208C
:100910005245414459210A0020575249544520501C
:10092000524F544543544544210A00204552524FEA
:1009300052210A0020464154204F4B210A00496EA3
:10094000697469616C697A696E6720464154204414
:1009500069736B2E2E2E003F3F3F0A0053444843DD
:100960000A00424C4B0A005344430A005344320AE3
:100970000053440A004D4D430A00436172642074E1
:100980007970653A20005344206361726420697372
:1009900020696E697469616C697A65640A00496EE0
:1009A000697469616C697A6174696F6E20666169E6
:1009B0006C65642121210A00534420636172642024
:1009C00069732057726974652050726F746563741F
:1009D0006564210A00496E73657274205344206374
:1009E000617264000A4D61696E20436F6E74726FAC
:1009F0006C6C657220576F726B730A0043616E6E88
:100A00006F742066696E64207468652070616E651D
:100A10006C2025642E0A0042616420657869742088
:100A2000636D642C20726573756C74203D20257590
:100A30000A00646F6E2774206B6E6F7720686F7783
:100A400020746F206465616C20776974682072651A
:100A500063747970653D2564206174206C696E65EE
:100A6000202564206F6620656570726F6D2E686545
:100A7000780A000A00766572696679206D69736D7F
:100A80006174636820666F722070616765202564F9
:100A90000A00766572696679206D69736D617463A9
:100AA0006820666F7220706167652025640A0063A4
:100AB0006865636B73756D3D3078253032782C2016
:100AC000636F6D707574656420636865636B7375BF
:100AD0006D3D3078253032780A004552524F523AF7
:100AE00020636865636B73756D206D69736D6174E8
:100AF0006368206174206C696E65202564206F66D0
:100B000020656570726F6D2E6865780A000A7665DB
:100B100072696679696E673A20004572726F722059
:100B2000665F6C7365656B20696E20656570726FBA
:100B30006D2E6865782E0A00646F6E2774206B6EC8
:100B40006F7720686F7720746F206465616C207701
:100B500069746820726563747970653D25642061ED
:100B600074206C696E65202564206F662065657051
:100B7000726F6D2E6865782E0A00636865636B730B
:100B8000756D3D3078253032782C20636F6D70752F
:100B900074656420636865636B73756D3D3078259B
:100BA0003032780A004552524F523A2063686563EA
:100BB0006B73756D206D69736D617463682061740A
:100BC000206C696E65202564206F662065657072F3
:100BD0006F6D2E6865782E0A000A77726974696EE7
:100BE000673A202020004261642070616E656C20AD
:100BF00072657365742C20726573756C74203D206A
:100C000025750A00656570726F6D2070616E656C88
:100C10002025752E0A004572726F7220665F6F7014
:100C2000656E20696E20656570726F6D2E686578DF
:100C30002E0A0025530A004F4B004449534B5F4591
:100C4000525200494E545F455252004E4F545F522B
:100C500045414459004E4F5F46494C45004E4F5F59
:100C60005041544800494E56414C49445F4E414D15
:100C7000450044454E4945440045584953540049B0
:100C80004E56414C49445F4F424A454354005752E7
:100C90004954455F50524F54454354454400494ED2
:100CA00056414C49445F4452495645004E4F545FAB
:100CB000454E41424C4544004E4F5F46494C455FCE
:100CC00053595354454D004D4B46535F41424F528B
:100CD0005445440054494D454F5554000043616EFE
:100CE0006E6F742066696E64207468652070616E32
:100CF000656C2025642E0A00426164206578697461
:100D000020636D642C20726573756C74203D202502
:100D1000750A00646F6E2774206B6E6F7720686FA2
:100D20007720746F206465616C2077697468207225
:100D30006563747970653D2564206174206C696E0B
:100D400065202564206F662070616E656C2E686575
:100D5000780A000A00766572696679206D69736D9C
:100D60006174636820666F72207061676520256416
:100D70000A00766572696679206D69736D617463C6
:100D80006820666F7220706167652025640A0063C1
:100D90006865636B73756D3D3078253032782C2033
:100DA000636F6D707574656420636865636B7375DC
:100DB0006D3D3078253032780A004552524F523A14
:100DC00020636865636B73756D206D69736D617405
:100DD0006368206174206C696E65202564206F66ED
:100DE0002070616E656C2E6865780A000A766572FF
:100DF000696679696E673A20004572726F72206683
:100E00005F6C7365656B20696E2070616E656C2E1A
:100E10006865782E0A00646F6E2774206B6E6F779A
:100E200020686F7720746F206465616C2077697427
:100E30006820726563747970653D25642061742053
:100E40006C696E65202564206F662070616E656C2C
:100E50002E6865780A00636865636B73756D3D3055
:100E600078253032782C20636F6D7075746564203E
:100E7000636865636B73756D3D3078253032780A31
:100E8000004552524F523A20636865636B73756D2B
:100E9000206D69736D61746368206174206C696E84
:100EA00065202564206F662070616E656C2E686514
:100EB000782E0A000A77726974696E673A202020DA
:100EC000004261642070616E656C207265736574A8
:100ED0002C20726573756C74203D2025750A0066A0
:100EE0006C6173682070616E656C2025752E0A0038
:100EF0004572726F7220665F6F70656E20696E203A
:100F000070616E656C2E6865782E0A0042616420FF
:100F1000666C61736820726561642C2072657375FC
:100F20006C74203D2025750A002300426164206610
:100F30006C61736820726561642C20726573756CD6
:100F400074203D2025750A002300426164206565F8
:100F500070726F6D2077726974652C20726573757D
:100F60006C74203D2025750A0023004261642066D0
:100F70006C61736820726561642C20726573756C96
:100F800074203D2025750A00230042616420666CB0
:100F900061736820726561642C20726573756C746E
:100FA000203D2025750A00230042616420666C61A3
:100FB00073682077726974652C20726573756C7420
:100FC000203D2025750A0023000011241FBECFEF0D
:100FD000DFE3DEBFCDBF00E00CBF18BE19BE1ABEF6
:100FE0001BBE14E2A0E0B0E2E6E1FAEB00E00BBFCA
:100FF00002C007900D92A03EB107D9F71BBE1BE2BD
:10100000A0EEB4E201C01D92AD3FB107E1F70E942E
:10101000591D0C94095D0C94000080919B279091C0
:101020009C27019680939B2790939C2780919B27D8
:1010300090919C2740910528509106288417950788
:1010400020F010929B2710929C278091502990911C
:10105000512920919B2730919C27BC01649FC0019E
:10106000659F900D749F900D1124820F931F8093A4
:10107000E5249093E6248091E124882329F080914F
:10108000E0248F5F8093E02408958091502990910F
:1010900051290196809350299093512920915029EC
:1010A000309151298091A6259091A72528173907BD
:1010B00020F01092502910925129209150293091FE
:1010C000512940919B2750919C2780910528909110
:1010D0000628BC01269FC001279F900D369F900DCA
:1010E0001124840F951F8093E5249093E62480912A
:1010F000E124882329F48091E0248F5F8093E02409
:10110000089580919B2790919C27892B29F48091A9
:1011100005289091062804C080919B2790919C27D8
:10112000019780939B2790939C2720915029309181
:10113000512940919B2750919C278091052890919F
:101140000628BC01269FC001279F900D369F900D59
:101150001124840F951F8093E5249093E6248091B9
:10116000E124882329F08091E0248F5F8093E0249C
:1011700008958091502990915129892B29F48091CB
:10118000A6259091A72504C08091502990915129BE
:1011900001978093502990935129209150293091A3
:1011A000512940919B2750919C278091052890912F
:1011B0000628BC01269FC001279F900D369F900DE9
:1011C0001124840F951F8093E5249093E624809149
:1011D000E124882329F48091E0248F5F8093E02428
:1011E00008951F93CF93DF93EC0140E050E011E0AE
:1011F0008881FA01EA57F94DDF0127E030E0682FD6
:1012000070E0CB01022E02C0959587950A94E2F713
:1012100080FD02C0108201C01C93215030403196E5
:1012200011968FEF2F3F380761F72196485F5F4F88
:1012300040365105E9F68091F324882321F48AE5AC
:1012400097E00E942A56DF91CF911F910895A4E361
:10125000B0E0EDE2F9E00C94A95785EE97E261EB7E
:1012600070E241E00E94174C882309F0B5C08090DD
:10127000EF277091F027682D8091F1279091F22748
:1012800022E330E040E050E00E946B5779018A0190
:101290009924939422E3322E93E0692E712C6C0EE4
:1012A0007D1E2E010894411C511C3AC0939CC00124
:1012B0001124C2975C01CC24B7FCC094DC2C85EED1
:1012C00097E2B601A5010E94C13B882301F58091F8
:1012D000EB279091EC27A091ED27B091EE278A158E
:1012E0009B05AC05BD0599F485EE97E2B30142E399
:1012F00050E092010E942E4D882389F489819A81C1
:10130000C29769F4C30162E30E94722D08C0809104
:10131000F324882321F482E692E00E942A569394D3
:10132000892D90E0A0E0B0E0E816F9060A071B0757
:1013300008F0BCCF82E3989EC0011124C2975C01E3
:10134000CC24B7FCC094DC2C85EE97E2B601A50155
:101350000E94C13B882399F58091EB279091EC275F
:10136000A091ED27B091EE278A159B05AC05BD0530
:1013700031F5C801B70122E330E040E050E00E94BF
:101380002557D82CD61A0D2D10E083E0E82EF12C2D
:10139000EC0EFD1E85EE97E2B701A8019E012F5FBE
:1013A0003F4F0E942E4D882391F489819A818017A6
:1013B000910769F4C7016D2D0E94722D08C08091BC
:1013C000F324882321F481E492E00E942A5685EEDA
:1013D00097E20E945B4808C08091F324882321F49F
:1013E00084E292E00E942A56E496E1E10C94C5570B
:1013F000ACECB0E0EEEFF9E00C94B4578091F62439
:101400009091F7242091E9243091EA24892B09F462
:1014100004C12F5F3F4F2093E9243093EA24409189
:10142000EF245091F0246091F1247091F2244E5FEA
:101430005F4F6F4F7F4F4093EF245093F0246093A2
:10144000F1247093F2248091AF209091B020969572
:1014500087952817390770F48091A9209091AA20C8
:10146000A091AB20B091AC20481759076A077B07C1
:1014700008F4DDC08091A9209091AA20A091AB2012
:10148000B091AC20481759076A077B0778F0109293
:10149000EF241092F0241092F1241092F224109272
:1014A000E9241092EA2440E052E006C040505E4F2A
:1014B0001092E9241092EA247A0100E010E088EE0C
:1014C00096E2B801A7010E94C13B282F882309F0AA
:1014D00086C08091EE269091EF26A091F026B091E3
:1014E000F1268E159F05A007B10709F078C0E0909E
:1014F000A920F090AA200091AB201091AC2020915F
:10150000EF243091F0244091F1245091F224D8013D
:10151000C701821B930BA40BB50B883C9105A10559
:10152000B10518F088EC90E003C0C701821B930B53
:101530008093AF209093B0208E010B5F1F4F40919E
:10154000AF205091B02088EE96E2B8019E012F5F47
:101550003F4F0E942E4D482F882321F529813A8143
:101560008091AF209091B02028173907D9F4F80165
:101570006BEA75E22E7F200F311FAE014D5F5F4F8A
:101580000DC08081DA018C93818111968C938B81BF
:101590009C81DB018D939D93BD013296E217F30789
:1015A00081F745C08091F324882309F040C000D022
:1015B0000F92EDB7FEB7319687EE92E0ADB7BEB7AA
:1015C00011968D939C931297428313820E946C56BE
:1015D0000F900F900F900F9082EC92E01BC08091C3
:1015E000F324882321F500D00F92EDB7FEB7319692
:1015F00087EB92E0ADB7BEB711968D939C9312978F
:10160000228313820E946C560F900F900F900F90C0
:1016100080E892E00E942A560AC0C901019664E659
:1016200070E00E9444578093E9249093EA248091CB
:10163000E3278530E9F4E091E924F091EA24EE0F04
:10164000FF1FE555FA4D2081318188E491E0289F04
:10165000B001299F700D389F700D112461507048A2
:1016600035E0769567953A95E1F781E00E9487210C
:10167000C453DF4FE6E00C94D057ACECB0E0E3E4A9
:10168000FBE00C94B4578091F4249091F5242091C0
:10169000E7243091E824892B09F404C12F5F3F4FE0
:1016A0002093E7243093E8244091EB245091EC24DC
:1016B0006091ED247091EE244E5F5F4F6F4F7F4F2E
:1016C0004093EB245093EC246093ED247093EE242C
:1016D0008091AD209091AE20969587952817390777
:1016E00070F48091A5209091A620A091A720B091A0
:1016F000A820481759076A077B0708F4DDC08091C6
:10170000A5209091A620A091A720B091A8204817CD
:1017100059076A077B0778F01092EB241092EC24AB
:101720001092ED241092EE241092E7241092E824F7
:1017300040E052E006C040505E4F1092E724109205
:10174000E8247A0100E010E086E795E2B801A701FD
:101750000E94C13B282F882309F086C080917C25F8
:1017600090917D25A0917E25B0917F258E159F05B6
:10177000A007B10709F078C0E090A520F090A6205E
:101780000091A7201091A8202091EB243091EC2407
:101790004091ED245091EE24D801C701821B930B98
:1017A000A40BB50B883C9105A105B10518F088EC98
:1017B00090E003C0C701821B930B8093AD209093F0
:1017C000AE208E010B5F1F4F4091AD205091AE2097
:1017D00086E795E2B8019E012F5F3F4F0E942E4D94
:1017E000482F882321F529813A818091AD2090915D
:1017F000AE2028173907D9F4F80167E078E22E7F88
:10180000200F311FAE014D5F5F4F0DC08081DA01A7
:101810008C93818111968C938B819C81DB018D93BC
:101820009D93BD013296E217F30781F745C0809181
:10183000F324882309F040C000D00F92EDB7FEB723
:1018400031968BE493E0ADB7BEB711968D939C9320
:101850001297428313820E946C560F900F900F9044
:101860000F9083E293E01BC08091F324882321F53D
:1018700000D00F92EDB7FEB7319688E193E0ADB797
:10188000BEB711968D939C931297228313820E9468
:101890006C560F900F900F900F9082EF92E00E9485
:1018A0002A560AC0C901019664E670E00E944457B6
:1018B0008093E7249093E824809199278530E9F478
:1018C000E091E724F091E824EE0FFF1FE95FF74D68
:1018D0002081318188E491E0289FB001299F700D1B
:1018E000389F700D112461507048F5E0769567952A
:1018F000FA95E1F780E00E948721C453DF4FE6E0CC
:101900000C94D057AEE0B2E0E8E8FCE00C94B55798
:10191000F82E162F6A3080F400D000D0EDB7FEB755
:101920003196CE010396ADB7BEB711968D939C93B9
:10193000129780E090E21FC0CE010396643670F4E7
:1019400000D000D0EDB7FEB73196ADB7BEB7119657
:101950008D939C9312978EE090E20DC000D000D042
:10196000EDB7FEB73196ADB7BEB711968D939C9388
:1019700012978BE190E282839383148315820E94F5
:10198000085A8DB79EB706968DBF9EBF91E0F91697
:1019900029F0A2E0FA1609F017C189C040919F20F2
:1019A0005091A02060E070E08DE39BE024E000E037
:1019B0000E94D42E86E795E20E945B4886E795E276
:1019C000BE016D5F7F4F41E00E94174C882309F0F4
:1019D00048C086E795E2BE01615F7F4F40E052E07C
:1019E0009E012F5F3F4F0E942E4D882399F58981DC
:1019F0009A818050924071F58F858093A5208889C7
:101A00008093A62089898093A7208A898093A82023
:101A10001093F4241092F524F0929C201092E0246C
:101A20008091F324882329F500D00F92EDB7FEB7FB
:101A3000319681E294E0ADB7BEB711968D939C9339
:101A40001297128313820E946C560F900F900F9082
:101A50000F900FC08091F324882359F480E094E024
:101A600006C08091F324882321F48FED93E00E9437
:101A70002A561092E7241092E8248091A520909194
:101A8000A620A091A720B091A8208093EB2490934A
:101A9000EC24A093ED24B093EE2440919F2050912C
:101AA000A02060E070E08DE39BE024E089C04091DD
:101AB000A1205091A22060E070E088EF99E025E03D
:101AC00000E00E94D42E88EE96E20E945B4888EEE9
:101AD00096E2BE016D5F7F4F41E00E94174C882364
:101AE00009F049C088EE96E2BE01615F7F4F40E099
:101AF00052E09E012F5F3F4F0E942E4D8823A1F59B
:101B000089819A818050924079F58F858093A920B0
:101B100088898093AA2089898093AB208A898093C1
:101B2000AC201093F6241092F72481E080939C203F
:101B30001092E0248091F324882329F500D00F929D
:101B4000EDB7FEB731968BEB93E0ADB7BEB711960C
:101B50008D939C931297128313820E946C560F9060
:101B60000F900F900F900FC08091F324882359F4A9
:101B70008AE993E006C08091F324882321F489E761
:101B800093E00E942A561092E9241092EA24809150
:101B9000A9209091AA20A091AB20B091AC20809375
:101BA000EF249093F024A093F124B093F224409179
:101BB000A1205091A22060E070E088EF99E025E03C
:101BC00001E00E94D42E08C08091F324882321F4E0
:101BD00086E593E00E942A56C25FDD4FE5E00C9453
:101BE000D157AEE0B2E0E7EFFDE00C94B557F82E28
:101BF000162F6A3080F400D000D0EDB7FEB73196D2
:101C0000CE010396ADB7BEB711968D939C931297F4
:101C100087E290E21FC0CE010396643670F400D0D4
:101C200000D0EDB7FEB73196ADB7BEB711968D9324
:101C30009C93129785E390E20DC000D000D0EDB7E1
:101C4000FEB73196ADB7BEB711968D939C931297A0
:101C500082E490E282839383148315820E94085A5F
:101C60008DB79EB706968DBF9EBF91E0F91629F0FD
:101C7000A2E0FA1609F017C189C040919F20509147
:101C8000A02060E070E08DE39BE024E000E00E9493
:101C9000D42E86E795E20E945B4886E795E2BE0176
:101CA0006D5F7F4F41E00E94174C882309F048C0C8
:101CB00086E795E2BE01615F7F4F40E052E09E0102
:101CC0002F5F3F4F0E942E4D882399F589819A817D
:101CD0008050924071F58F858093A52088898093EC
:101CE000A62089898093A7208A898093A8201093B1
:101CF000F4241092F524F0929C201092E02480911C
:101D0000F324882329F500D00F92EDB7FEB7319662
:101D10008AE095E0ADB7BEB711968D939C9312976C
:101D2000128313820E946C560F900F900F900F90A9
:101D30000FC08091F324882359F48DEE94E006C0FF
:101D40008091F324882321F48CEC94E00E942A569D
:101D50001092E7241092E8248091A5209091A6206B
:101D6000A091A720B091A8208093EB249093EC241D
:101D7000A093ED24B093EE2440919F205091A02099
:101D800060E070E08DE39BE024E089C04091A120F9
:101D90005091A22060E070E088EF99E025E000E03B
:101DA0000E94D42E88EE96E20E945B4888EE96E26E
:101DB000BE016D5F7F4F41E00E94174C882309F000
:101DC00049C088EE96E2BE01615F7F4F40E052E07D
:101DD0009E012F5F3F4F0E942E4D8823A1F58981E0
:101DE0009A818050924079F58F858093A9208889C7
:101DF0008093AA2089898093AB208A898093AC2024
:101E00001093F6241092F72481E080939C20109286
:101E1000E0248091F324882329F500D00F92EDB7B8
:101E2000FEB7319688EA94E0ADB7BEB711968D93B0
:101E30009C931297128313820E946C560F900F90FE
:101E40000F900F900FC08091F324882359F48AE8F3
:101E500094E006C08091F324882321F489E694E07D
:101E60000E942A561092E9241092EA248091A92017
:101E70009091AA20A091AB20B091AC208093EF2448
:101E80009093F024A093F124B093F2244091A120E8
:101E90005091A22060E070E088EF99E025E001E039
:101EA0000E94D42E08C08091F324882321F486E474
:101EB00094E00E942A56C25FDD4FE5E00C94D157B2
:101EC0000F93813031F09091F324823009F061C09A
:101ED00033C08091F324882321F48FE695E00E949B
:101EE0002A5640919F205091A02060E070E08DE341
:101EF0009BE024E000E00E94D42E1092F424109283
:101F0000F52484E690E0A0E0B0E08093A5209093D3
:101F1000A620A093A720B093A820E7E0F8E28AE0EB
:101F200090E08193919328E2EF3CF207D1F7109271
:101F3000E7241092E82433C0992321F48EE495E03D
:101F40000E942A564091A1205091A22060E070E0AA
:101F500088EF99E025E000E00E94D42E1092F6244C
:101F60001092F72484E690E0A0E0B0E08093A920EE
:101F70009093AA20A093AB20B093AC20EBEAF5E2BB
:101F80008AE090E08193919326E2E337F207D1F75C
:101F900006C0992321F48EE295E00E942A560F9103
:101FA00008951F93CF93DF93162FEA01882349F5F5
:101FB000809182268823E1F785E796E260E0AE0112
:101FC000212F0E94AC2F80917F298823E1F782E79F
:101FD00099E260E0AE01212F0E94AC2F809115277D
:101FE0008823E1F788E097E260E0AE01212F0E94AC
:101FF000AC2F8091A4258823E1F787E995E260E082
:1020000022C0E82FF0E0DF01A85EB84DAC91E153AB
:10201000F74D6081AA23D9F0A33051F0A43059F0D4
:10202000A23019F4A2E7B9E208C0A5E7B6E205C0FC
:10203000A8E0B7E202C0A7E9B5E21D968C911D9712
:102040008823D9F7CD01AE01212F0E94AC2FDF915B
:10205000CF911F910895A2E8B0E0E1E3F0E10C9484
:10206000B257282F8A3080F400D000D0EDB7FEB7E9
:10207000319688EF94E2ADB7BEB711968D939C93DD
:1020800012978EE490E21FC088EF94E2243670F439
:1020900000D000D0EDB7FEB73196ADB7BEB7119600
:1020A0008D939C9312978CE590E20DC000D000D0E8
:1020B000EDB7FEB73196ADB7BEB711968D939C9331
:1020C000129789E690E282839383248315820E948B
:1020D000085AEDB7FEB73696EDBFFEBF85EE97E224
:1020E00068EF74E241E00E94174C8823C9F583E051
:1020F000C82ED12CCC0EDD1E85EE97E2B60140E84D
:1021000050E09E012F5F3F4F0E942E4D882309F51E
:1021100089819A8180389105E1F419E1E12E17E275
:10212000F12E00E010E0F601E00FF11F6081D70111
:102130006D937D010F5F1F4FC8018F5F9F4F0E94FE
:10214000435C0038110579F781E090E060E00E947F
:10215000435C85EE97E20E945B488DEE95E002C0FD
:1021600087EB95E00E942A56CE57DF4FE8E00C94AB
:10217000CE5783E00E9419210895EF92FF920F93AA
:102180001F93CF93DF9380919927823009F4A4C0E5
:10219000833030F4882359F0813009F09BC132C07C
:1021A000833009F4FFC0843009F094C149C1E09143
:1021B000E724F091E824EE0FFF1FE95FF74D20813F
:1021C0003181220F331F20938426309385268091FE
:1021D000E427992787FD9095AC01249FC001259F96
:1021E000900D349F900D11246AE070E00E945857C2
:1021F000CB012091962545E0240290011124820F05
:10220000931FCAC080E00E942A2164E070E00E940F
:102210005857162F072F81E00E942A2164E070E0B2
:102220000E945857212F302FC901AC0197FF02C0DF
:1022300040E050E09B0177FF02C020E030E0421B0D
:10224000530B440F551F440F551F20918426309186
:102250008526C901880F991F820F931F880F991F28
:10226000840F951F6AE070E00E9458579B016093AD
:102270008426709385268091E427992787FD909581
:10228000BC01269FC001279F900D369F900D112401
:102290006AE070E00E945857CB012091962545E0F6
:1022A000240290011124820F931F62E070E00E94CB
:1022B00058579B017B0171E02130370724F0E12C56
:1022C000A1E0FA2E09C18FEF203038070CF004C1CD
:1022D000E12CFFEFFF2E00C180E00E942A2164E084
:1022E00070E00E945857162F072F81E00E942A2184
:1022F00064E070E00E945857212F302FC901AC01D3
:1023000097FF02C040E050E09B0177FF02C020E051
:1023100030E0421B530B440F551F440F551F2091B3
:10232000842630918526C901880F991F820F931F3B
:10233000880F991F840F951F6AE070E00E9458571C
:102340006093842670938526E091E724F091E82439
:10235000EE0FFF1FE95FF74D20813181220F331F00
:102360008091962545E08402C0011124280F391F71
:102370008091E427992787FD9095AC01649FC00167
:10238000659F900D749F900D11246AE070E00E948B
:102390005857C901860F971F62E070E00E94585796
:1023A0007B019AC084E00E942A2162E070E00E94D2
:1023B0005857CB0177FF02C080E090E06091E4279E
:1023C000772767FD70950E94585780919625992729
:1023D00087FD9095860F971F80939B2790939C274E
:1023E00080919B2790919C27409105285091062829
:1023F0008417950740F04150504040939B275093DD
:102400009C274F5F5F4F80919B2790919C27892B42
:1024100021F410929B2710929C2780915029909133
:10242000512920919B2730919C27BC01649FC001BA
:10243000659F900D749F900D1124820F931F46C0CD
:10244000E091E724F091E824EE0FFF1FE95FF74DDC
:102450000190F081E02D8091E6269091E726E80F2B
:10246000F91F2091052830910628F7FD09C0CF01FA
:10247000B9010E94445780939B2790939C2710C0DA
:10248000882799278E1B9F0BB9010E944457215022
:102490003040A901481B590B40939B2750939C2720
:1024A000209150293091512940919B2750919C2790
:1024B0008091052890910628BC01269FC001279F86
:1024C000900D369F900D1124840F951F8093E52465
:1024D0009093E624EE24FF248091E327823009F4D0
:1024E000A2C0833030F4882359F0813009F085C1CF
:1024F00032C0833009F4FDC0843009F07EC133C19D
:10250000E091E924F091EA24EE0FFF1FE555FA4D22
:1025100020813181220F331F2093A8253093A925D4
:1025200080919D27992787FD9095AC01249FC0013C
:10253000259F900D349F900D11246AE070E00E9459
:102540005857CB012091B42B45E02402900111246F
:10255000820F931FC8C082E00E942A2164E070E0CD
:102560000E945857162F072F83E00E942A2164E00B
:1025700070E00E945857212F302FC901AC0197FFFE
:1025800002C040E050E09B0177FF02C020E030E055
:10259000421B530B440F551F440F551F2091A82574
:1025A0003091A925C901880F991F820F931F880FA9
:1025B000991F840F951F6AE070E00E9458579B0195
:1025C0006093A8257093A92580919D27992787FD61
:1025D0009095BC01269FC001279F900D369F900DBE
:1025E00011246AE070E00E945857CB012091B42B6F
:1025F00045E0240290011124820F931F62E070E0F5
:102600000E9458579B01EB0171E0213037071CF005
:10261000C0E0D1E0F4C08FEF203038070CF0EFC0FD
:10262000C0E0DFEFECC082E00E942A2164E070E0AD
:102630000E945857162F072F83E00E942A2164E03A
:1026400070E00E945857212F302FC901AC0197FF2D
:1026500002C040E050E09B0177FF02C020E030E084
:10266000421B530B440F551F440F551F2091A825A3
:102670003091A925C901880F991F820F931F880FD8
:10268000991F840F951F6AE070E00E94585760936D
:10269000A8257093A925E091E924F091EA24EE0F92
:1026A000FF1FE555FA4D20813181220F331F8091A4
:1026B000B42B45E08402C0011124280F391F8091FA
:1026C0009D27992787FD9095AC01649FC001659F68
:1026D000900D749F900D11246AE070E00E9458578D
:1026E000C901860F971F62E070E00E945857EB0106
:1026F00086C085E00E942A2162E070E00E9458575F
:10270000CB0177FF02C080E090E060919D277727A2
:1027100067FD70950E9458578091B42B992787FDCB
:102720009095860F971F80935029909351298091FF
:102730005029909151292091A6253091A7258217E3
:10274000930730F021503040209350293093512985
:102750008091502990915129892BA9F510925029E7
:102760001092512930C0E091E924F091EA24EE0F53
:10277000FF1FE555FA4D0190F081E02D8091732601
:1027800090917426E80FF91F2091A6253091A72576
:10279000F7FD09C0CF01B9010E9444578093502929
:1027A0009093512910C0882799278E1B9F0BB90140
:1027B0000E94445721503040A901481B590B4093B7
:1027C00050295093512920915029309151294091FD
:1027D0009B2750919C278091052890910628BC0149
:1027E000269FC001279F900D369F900D1124840FC6
:1027F000951F8093E5249093E624C0E0D0E080917B
:102800009C20813059F11E141F0474F49701442751
:1028100037FD4095542F62E17AE780E090E00E9416
:102820006B578DE098E013C0E114F104C9F0222742
:1028300033272E193F09442737FD4095542F62E175
:102840007AE780E090E00E946B5781E898E0BA0157
:10285000A90122E001E00E94FA2E0EC0C0E0D0E003
:1028600081E898E04EE450E060E070E022E000E0B3
:102870000E94FA2EEE24FF241C161D0674F49E01FD
:10288000442737FD4095542F62E17AE780E090E0DD
:102890000E946B5785E498E012C02097A9F0222788
:1028A00033272C1B3D0B442737FD4095542F62E105
:1028B0007AE780E090E00E946B5789EB98E0BA01DC
:1028C000A90123E001E008C089EB98E04EE450E064
:1028D00060E070E023E000E00E94FA2E1092E12414
:1028E000EC16FD061CF081E08093E124CDB7DEB745
:1028F000E6E00C94D057A2E0B0E0E1E8F4E10C94FB
:10290000B5578C01FC018081803209F4A5C0813269
:1029100038F4803109F48FC0853109F011C193C0BA
:10292000803309F4D8C08F3F21F0853209F008C107
:10293000A0C0F801F180809182268823E1F785E725
:1029400096E26F2D49EF50E222E00E94AC2F809179
:102950007F298823E1F782E799E26F2D49EF50E262
:1029600022E00E94AC2F809115278823E1F788E0B0
:1029700097E26F2D49EF50E222E00E94AC2F809148
:10298000A4258823E1F787E995E26F2D49EF50E20E
:1029900022E00E94AC2F80EF95E520E233E0F901C0
:1029A0003197F1F70197D9F78FEF8983F801928179
:1029B000809182268823E1F79A8385E796E26F2D3E
:1029C000AE014F5F5F4F22E00E94AC2F80917F29C4
:1029D0008823E1F782E799E26F2DAE014F5F5F4FE9
:1029E00022E00E94AC2F809115278823E1F788E030
:1029F00097E26F2DAE014F5F5F4F22E00E94AC2F38
:102A00008091A4258823E1F787E995E26F2DAE0137
:102A10004F5F5F4F22E00E94AC2F84EF91E020E2F5
:102A200033E0F9013197F1F70197D9F780E062E0DF
:102A300049EF50E289C0F801818180939927828112
:102A40008093E32783C0F8016281662349F0F8018F
:102A500081810E94F10D7AC0F8016281662321F420
:102A600081810E94600F72C0F80181810E94820CF6
:102A70006DC0F801928180E021818C01020F111D4F
:102A8000980140E050E062E17AE780E090E00E9447
:102A90008D5720939F203093A0208091F32488238A
:102AA00081F400D00F928DED97E0EDB7FEB78183F2
:102AB0009283038314830E946C560F900F900F90A3
:102AC0000F9040919F205091A02060E070E08DE336
:102AD0009BE024E031C0F801928180E021818C01EB
:102AE000020F111D980140E050E062E17AE780E0BA
:102AF00090E00E948D572093A1203093A2208091D6
:102B0000F324882381F400D00F928AEB97E0EDB78D
:102B1000FEB781839283038314830E946C560F90C7
:102B20000F900F900F904091A1205091A22060E053
:102B300070E088EF99E025E001E00E94FA2E06C0DF
:102B400080E068E041ED50E20E94D10F2296E5E07E
:102B50000C94D157A1E0B0E0E0EBF5E10C94B05754
:102B60005C01FC01E080F180C280D380848180938D
:102B7000E42495819093172786818093AA25882342
:102B800019F090939A2709C0892F90E033E0880FBD
:102B9000991F3A95E1F780939A271092E02481E0FB
:102BA00061E00E94F82007E010E091E00FC0A5016D
:102BB000400F511F892F60919A2799830E94D10F4E
:102BC00080919A27080F111D99819F5F8091E424BD
:102BD000891768F77F2D60E06E0D711D80E00E94FF
:102BE00087217D2D60E06C0D711D81E00E948721A1
:102BF00081E060E00E94F8202196EAE00C94CC5736
:102C0000A6E2B0E0E6E0F6E10C94AA574C014DB61E
:102C10005EB68FB781E061E00E94F82090919A271C
:102C20008091E424989F500111248DB79EB78A1992
:102C30009B098DBF9EBF6DB67EB60894611C711C4A
:102C40006B2D66956F5F70E080E090E0940140E04E
:102C500050E00E9425576B017C010894C11CD11CD7
:102C6000E11CF11CE9E0CC0CDD1CEE1CFF1CEA951C
:102C7000D1F740919F205091A02060E070E08DE35B
:102C80009BE024E000E00E94D42E4091A1205091CE
:102C9000A22060E070E088EF99E025E00E94D42E49
:102CA00082E599E2B701A6010E94C13B182F882353
:102CB00009F084C18091582990915929A0915A29ED
:102CC000B0915B298C159D05AE05BF0509F076C155
:102CD00082E599E2B301A5019E012F5F3F4F0E945B
:102CE0002E4D082F882309F044C189819A818A15C5
:102CF0009B0509F03EC18091F4249091F524892B25
:102D000061F040919F205091A02060E070E08DE341
:102D10009BE024E001E00E94D42E8091F624909163
:102D2000F724892B61F04091A1205091A22060E00E
:102D300070E088EF99E025E001E00E94D42E8091B8
:102D4000E024823018F081E00E9486201092E02476
:102D500001E0EE24FF2477E0C72ED12CCC0EDD1E3F
:102D600063E0A62EB12CAC0EBD1EF7C08D918193F1
:102D70008E2F8C198917D0F3E90EF11C80918129CF
:102D8000813009F0E3C09830E9F49F818885981775
:102D9000C9F449858A854817A9F43B858C8538177D
:102DA00089F42D858E85281769F4941759F49317A3
:102DB00049F4921739F4802F61E0A6010E94D10FE7
:102DC000E1E001C0E0E080919A27883109F04EC02F
:102DD0006F818885681709F049C039858A85381759
:102DE00009F044C02B858C85281709F03FC09D85CC
:102DF0008E859817D9F56317C9F56217B9F5691764
:102E0000A9F54F858889481789F539898A8938173E
:102E100069F52B898C89281749F59D898E89981722
:102E200029F5431719F5421709F54917F9F49F8950
:102E3000888D9817D9F4598D8A8D5817B9F43B8D20
:102E40008C8D381799F42D8D8E8D281779F4951760
:102E500069F4931759F4921749F46B834C839D835B
:102E6000802F63E0A5010E94D10FE1E080919A27B5
:102E7000803209F069C07F818885781709F064C0C5
:102E800039858A85381709F05FC02B858C8528170E
:102E900009F05AC09D858E85981709F055C07317A3
:102EA00009F052C0721709F04FC0791709F04CC0F1
:102EB0006F858889681709F047C039898A8938176A
:102EC00009F042C02B898C892817F1F59D898E89DC
:102ED0009817D1F56317C1F56217B1F56917A1F518
:102EE0004F89888D481781F5398D8A8D381761F59E
:102EF0002B8D8C8D281741F59D8D8E8D981721F582
:102F0000431711F5421701F54917F1F49F8D88A178
:102F10009817D1F459A18AA15817B1F43BA18CA1FB
:102F2000381791F42DA18EA1281771F4951761F42B
:102F3000931751F4921741F47B836C834D839E83E6
:102F4000802F64E0A50106C0EE2331F4802F60914C
:102F50009A27A6010E94D10F0F5F8091E424801769
:102F600008F475C090919A27D301AE0DBF1DF601EC
:102F7000FFCE8091F324882309F069C081E397E0B4
:102F80000E942A56ADB7BEB71897ADBFBEBFEDB70A
:102F9000FEB7319683E197E011968D939C9312973B
:102FA000028313828482958289819A8186839783A2
:102FB0000E946C568DB79EB7089647C08091F42446
:102FC0009091F524892B61F040919F205091A02091
:102FD00060E070E08DE39BE024E001E00E94D42EED
:102FE0008091F6249091F724892B61F04091A120E3
:102FF0005091A22060E070E088EF99E025E001E0C8
:103000000E94D42E8091F324882309F589EE96E05E
:103010000E942A56ADB7BEB71A97ADBFBEBFEDB777
:10302000FEB7319686EC96E011968D939C9312979D
:103030001283138284829582C682D782E086F186CB
:103040000E946C568DB79EB70A968DBF9EBF809129
:1030500099278530E9F060919B2770919C2780E04B
:1030600090E02FEF3FEF40E050E00E942557209185
:1030700005283091062840E050E00E948D5755E029
:10308000369527955A95E1F780E0B9010E9487218E
:103090008091E3278530E9F06091502970915129A2
:1030A00080E090E02FEF3FEF40E050E00E94255796
:1030B0002091A6253091A72540E050E00E948D5731
:1030C00045E0369527954A95E1F781E0B9010E94E0
:1030D00087218091E224813081F4E0919B27F09157
:1030E0009C27EA57F94D8081882319F482E060E03B
:1030F00002C082E061E00E94F82081E060E00E946E
:10310000F8204DBE5EBEA696E0E10C94C657A0E046
:10311000B0E0EDE8F8E10C94B05781E080939C209A
:103120002091A6253091A725809105289091062809
:10313000289F5001299FB00C389FB00C11240E9489
:10314000FA54C0E0D0E004C0CE010E9400162196DF
:10315000CA15DB05C8F30E940F557B018C018DB7A2
:103160009EB708978DBF9EBFCDB6DEB60894C11C32
:10317000D11C80E995E0EDB7FEB781839283F6011B
:10318000E282F38204831583B50180E090E028EEAB
:1031900033E040E050E00E942557A80197010E94CB
:1031A0006B57F601268337830E946C568DB79EB706
:1031B00008968DBF9EBFCDB7DEB7EAE00C94CC5722
:1031C000A2E0B2E0E6EEF8E10C94B657182F8A3090
:1031D00080F400D000D0EDB7FEB7319684E095E2E0
:1031E000ADB7BEB711968D939C93129785E790E289
:1031F0001FC084E095E2143670F400D000D0EDB723
:10320000FEB73196ADB7BEB711968D939C931297CA
:1032100083E890E20DC000D000D0EDB7FEB7319644
:10322000ADB7BEB711968D939C93129780E990E24B
:1032300082839383148315820E94085A8DB79EB7A8
:1032400006968DBF9EBF40919F205091A02060E0C8
:1032500070E08DE39BE024E000E00E94D42E4091DA
:10326000A1205091A22060E070E088EF99E025E075
:103270000E94D42E82E599E20E945B4882E599E2A1
:1032800064E075E241E00E94174C882309F0CBC04E
:1032900082E599E2BE016D5F7F4F40E052E09E0102
:1032A0002F5F3F4F0E942E4D882309F0B5C08981C2
:1032B0009A818050924009F0AFC08091F42490919F
:1032C000F524892B61F040919F205091A02060E06F
:1032D00070E08DE39BE024E001E00E94D42E809119
:1032E000F6249091F724892B61F04091A120509110
:1032F000A22060E070E088EF99E025E001E00E9404
:10330000D42E8B81809305288C81809306288D8113
:103310008093A6258E818093A7258F818093E424B6
:10332000988590931727892F8B50843048F49A50B2
:103330009093172781E08093AA2590939A270BC03A
:103340001092AA25892F90E0F3E0880F991FFA9533
:10335000E1F780939A271092502910925129809179
:1033600050299091512980939B2790939C271092EC
:10337000E5241092E62481E080939C201092E024C2
:103380008091F324882309F040C000D00F92EDB75C
:10339000FEB7319681EB96E0ADB7BEB711968D932F
:1033A0009C931297128313820E946C568DB79EB71E
:1033B00008978DBF9EBFEDB7FEB731968EE596E0BC
:1033C000ADB7BEB711968D939C9312978091052847
:1033D00090910628828393838091A6259091A725BA
:1033E000848395838091E4248683178280911727B4
:1033F000808711868091AA25828713860E946C5649
:103400008DB79EB70C968DBF9EBF8091E52490919D
:10341000E6240E9400160FC08091F324882359F4FB
:103420008FE396E006C08091F324882321F483E2A1
:1034300096E00E942A56CE5FDD4FE4E00C94D2570E
:10344000FC018081803721F0813709F081C073C091
:10345000928180E02181820F911D80939B27909320
:103460009C27948180E02381820F911D80935029B5
:103470009093512980919B2790919C278093E626D9
:103480009093E7268091502990915129809373263B
:1034900090937426209150293091512940919B2777
:1034A00050919C278091052890910628BC01269F69
:1034B000C001279F900D369F900D1124840F951FFA
:1034C0008093E5249093E6241092E0248091F324E5
:1034D000882351F520919B2730919C2740915029BA
:1034E000509151296091E5247091E6248DB79EB7E3
:1034F00008978DBF9EBFEDB7FEB731968EE797E078
:10350000ADB7BEB711968D939C93129722833383E8
:1035100044835583668377830E946C566DB77EB76C
:10352000685F7F4F6DBF7EBF8091E5249091E62458
:103530000E940016089581818093E4278281809300
:103540009625838180939D2784818093B42B089551
:1035500080E068E049ED50E20E94D10F0895FC013F
:103560002181808190E0FC013197E930F10578F507
:10357000E650FF4F0C94DF57822F62E049EF50E294
:103580002AC0822F62E04BEF50E225C0822F0E94BA
:10359000E0180895822F0E941E220895822F0E9413
:1035A000C2210895822F90E0880F991F8093A32055
:1035B0009093A4200895822F0E947C280895822F42
:1035C0000E948A250895822F0E942B10089580E082
:1035D00068E049EC50E20E94D10F0895A2E0B0E00B
:1035E000E4EFFAE10C94B257FC01E081E53409F410
:1035F0007AC1E63408F058C0E93109F420C2EA3152
:1036000040F5E33109F4EBC1E43180F4E03109F431
:10361000D7C1E13120F4EE2309F447C140C2E131C2
:1036200009F4D2C1E23109F03AC2D5C1E63109F458
:10363000E7C1E73138F4E43109F4D4C1E53109F0E8
:103640002EC2D3C1E73109F4F3C1E83109F027C232
:10365000F3C1E53309F4F5C0E63398F4E23209F436
:103660000CC2E33238F4E03209F473C0E13209F0FD
:1036700016C2F9C1E53209F4ABC0E03309F00FC25C
:1036800087C0E23409F420C1E33438F4E03409F4AB
:1036900011C1E13409F003C212C1E33409F419C1C4
:1036A000E43409F0FCC11AC1E53909F452C1E63924
:1036B00028F5E03709F431C1E13768F4E73409F45B
:1036C0001CC1E73408F414C1E03509F420C1E03628
:1036D00009F0E5C11FC1E23909F42CC1E33938F41E
:1036E000E03909F41DC1E13909F0D9C11EC1E3393E
:1036F00009F425C1E43909F0D2C126C1EB3909F436
:1037000046C1EC3998F4E83909F432C1E93938F4A2
:10371000E63909F423C1E73909F0C1C124C1E93907
:1037200009F42BC1EA3909F0BAC12CC1EE3909F408
:103730003DC1EF3938F4EC3909F42EC1ED3909F007
:10374000AEC12FC1EF3909F436C1EF3F09F0A7C16F
:10375000D9C01092E7241092E8241092E924109224
:10376000EA2410929C201092E0248DEB90E14EE42C
:1037700050E060E070E021E001E00E94D42E8DE096
:1037800098E04EE450E060E070E022E000E014C019
:1037900081E080939C208DEB90E14EE450E060E06E
:1037A00070E021E000E00E94D42E8DE098E04EE42D
:1037B00050E060E070E022E00E94D42E85E498E0C2
:1037C0004EE450E060E070E023E00E94D42E6DC132
:1037D0001092E7241092E8241092E9241092EA242F
:1037E00010929C201092E0248DEB90E14EE450E08A
:1037F00060E070E021E001E00E94D42E8DE098E0CE
:103800004EE450E060E070E022E000E00E94D42E40
:1038100085E498E04EE450E060E070E023E00E9430
:10382000D42E6091A3207091A42082E19AE70E9497
:103830004457AB0160E070E089EB90E120E001E0EB
:10384000C4CF81E080939C208DEB90E14EE450E06A
:1038500060E070E021E000E00E94D42E8DE098E06E
:103860004EE450E060E070E022E00E94D42E85E457
:1038700098E04EE450E060E070E023E00E94D42E37
:103880002091A3203091A42040E050E062E17AE74B
:1038900080E090E00E948D5789EB90E1BA01A90188
:1038A00020E00E94D42E83E092C080E068E040E1F6
:1038B00055E2F9C080E068E14DEF50E2F4C080E0ED
:1038C00068E145E151E2EFC080E068E14DE251E29C
:1038D000EAC080E068E145E451E2E5C080E068E1EB
:1038E0004DE551E2E0C080E068E145E751E2DBC030
:1038F00080E068E14DE851E2D6C080E068E145EA49
:1039000051E2D1C080E068E04DEB51E2CCC00E94B2
:103910009920CBC00E940622C8C00E948718C5C04B
:1039200080E060E245EC51E2BEC080E060E245EE3E
:1039300051E2B9C080E060E245E052E2B4C080E00C
:1039400060E245E252E2AFC080E060E245E452E26C
:10395000AAC080E060E245E652E2A5C080E060E2F5
:1039600045E852E2A0C080E060E245EA52E29BC036
:1039700080E060E245EC52E296C080E060E245EE15
:1039800052E291C080E060E245E053E28CC080E00A
:1039900060E245E253E287C080E060E245E453E242
:1039A00082C080E060E245E653E27DC080E060E2F4
:1039B00045E853E278C080E060E245EA53E273C034
:1039C00081E08093E22471C01092E22482E060E002
:1039D0000E94F8206AC081E08093812966C010921D
:1039E000812963C00E94270960C000D00F9286E73A
:1039F00098E0EDB7FEB78183928385EC93E22AC00D
:103A0000B9E1EB2EB7E2FB2E01E01EEF6E01089448
:103A1000C11CD11C1983F70181917F018A83802FFA
:103A200062E0A6010E94D10F0F5F013899F73DC0F7
:103A300081E08093F32439C01092F32436C080E0F3
:103A40000E942A2100D00F9224E638E0EDB7FEB79D
:103A500021833283838394830E946C560F900F904E
:103A60000F900F9022C080E090E06FEF0E94435CC7
:103A70000F920F9282E398E009C080E090E060E04E
:103A80000E94435C0F920F9280E098E0EDB7FEB782
:103A9000818392830E946C560F900F9006C080E045
:103AA00068E041EC50E20E94D10F2296E8E00C94CD
:103AB000CE57A6E4B6E0EFE5FDE10C94B25780E006
:103AC00090E00E94335CE82E85E796E26E2D0E941E
:103AD000783082E799E26E2D0E94783088E097E294
:103AE0006E2D0E94783087E995E26E2D0E94783025
:103AF00085E796E260E874E040E450E023E20E944B
:103B0000292F82E799E260E974E040E450E023E283
:103B10000E94292F88E097E260EA74E040E450E0D8
:103B200023E20E94292F87E995E260EB74E040E4EC
:103B300050E023E20E94292F8E2D0E94202E0E9409
:103B4000822B89EE9CE2809374259093752580E00A
:103B500090E02AE030E0FC01E555FA4D2083318306
:103B6000FC01E95FF74D208331830296883C910583
:103B700091F7E6E8F6E220E030E041E02831310557
:103B800020F0C901C097489710F4408301C010820B
:103B90002F5F3F4F31962036310581F71092502923
:103BA00010925129809150299091512980939B27FF
:103BB00090939C2780919B2790919C2780937326BC
:103BC000909374268093E6269093E7261092B42B68
:103BD000109296258AE080939D278093E427109287
:103BE000E327109299271092A8251092A9251092E8
:103BF00084261092852681E0809317271092AA25AB
:103C00001092812981E090E00E94335C8F3FC1F4E3
:103C100080E024E011C0E82FF0E0982F9370DF01DE
:103C2000A85EB84D9C93882319F0992309F42C932E
:103C3000E153F74D80838F5F813868F3898317C024
:103C4000198211C00F2D10E0C8018F5F9F4F0E9495
:103C5000335CF801E85EF84D80830153174DF8019D
:103C6000F082F394F982F980F0E8FF1558F784EEBA
:103C700099E00E942A5681E061E00E94632001E001
:103C800090E2C92E93E0D92E3AC080E00E948B507A
:103C9000082F81FF0DC085ED99E00E942A560E94F1
:103CA000152D04C080E00E948B50082F01FDFACF33
:103CB00002FF04C088EB99E00E942A56198210C0C6
:103CC00080E00E948153082F80FF0DC0298184EF7E
:103CD00091E0F6013197F1F70197D9F72F5F29832A
:103CE0008981843068F300FF0AC08EE999E00E9460
:103CF0002A5680E00E948B50082F81FFFACF00FDEA
:103D0000C4CF86E899E00E942A5680E06AE0AE01BE
:103D10004F5F5F4F0E947551892B59F58AE799E0F3
:103D20000E942A5689818430A1F0853028F48130A0
:103D300051F08230D1F40AC0883089F08C3091F093
:103D4000863099F409C085E799E011C081E799E0D0
:103D50000EC08CE699E00BC087E699E008C082E6C9
:103D600099E005C08CE599E002C087E599E00E94E2
:103D70002A568EE399E00E942A5680E062E879E2B2
:103D80000E941931813051F0813028F0823049F0A1
:103D9000833069F409C084E399E00BC08BE299E0B9
:103DA00008C088E199E005C08BE099E002C086E098
:103DB00099E00E942A5680E068E040E155E20E94C6
:103DC000D10F81E060E00E9463200E9499208FEF74
:103DD000E81609F059C088ED98E00E942A568E0135
:103DE0000E5F1F4F0E94B62C892B79F1C8010E94EB
:103DF0001C2D83309105B9F08430910530F4813069
:103E0000910549F00297D9F40AC08530910579F0FF
:103E10000C97A9F410C0C8010E94EE1A16C0C80180
:103E20000E94AF1A12C0C8010E947B140EC0C801C4
:103E30000E94201A0AC0C8010E94F10806C080E052
:103E400068E049EE50E20E94D10F80919C208823C7
:103E500049F62091E5243091E62480919D209091AF
:103E60009E202817390709F4BDCF8091E524909151
:103E7000E62480939D2090939E208091E52490914C
:103E8000E6240E940016AECF8AEA98E00E942A56E5
:103E90008E01075C1F4F85E9E82E88E0F82E0E940E
:103EA000B62C892BE1F3C8010E941C2D81309105AD
:103EB00021F08233910549F404C0C8010E94EE1A32
:103EC000EECFC8010E94AA15EACF00D00F92EDB73D
:103ED000FEB7E182F282838394830E946C560F9036
:103EE0000F900F900F9080E068E049EE50E20E9442
:103EF000D10FD5CF1F920F920FB60F9208B60F9227
:103F000009B60F920BB60F92112418BE19BE1BBE34
:103F10002F933F934F935F936F937F938F939F93D1
:103F2000AF93BF93EF93FF9387E995E20E944530EB
:103F3000FF91EF91BF91AF919F918F917F916F9181
:103F40005F914F913F912F910F900BBE0F9009BE43
:103F50000F9008BE0F900FBE0F901F9018951F92E4
:103F60000F920FB60F9208B60F9209B60F920BB6CA
:103F70000F92112418BE19BE1BBE2F933F934F936F
:103F80005F936F937F938F939F93AF93BF93EF93C1
:103F9000FF9388E097E20E944530FF91EF91BF9137
:103FA000AF919F918F917F916F915F914F913F91D1
:103FB0002F910F900BBE0F9009BE0F9008BE0F906F
:103FC0000FBE0F901F9018951F920F920FB60F9271
:103FD00008B60F9209B60F920BB60F92112418BEB5
:103FE00019BE1BBE2F933F934F935F936F937F93A5
:103FF0008F939F93AF93BF93EF93FF9382E799E2E1
:104000000E944530FF91EF91BF91AF919F918F91A9
:104010007F916F915F914F913F912F910F900BBEC8
:104020000F9009BE0F9008BE0F900FBE0F901F900B
:1040300018951F920F920FB60F9208B60F9209B6FD
:104040000F920BB60F92112418BE19BE1BBE2F93F0
:104050003F934F935F936F937F938F939F93AF9310
:10406000BF93EF93FF9385E796E20E944530FF915F
:10407000EF91BF91AF919F918F917F916F915F91E0
:104080004F913F912F910F900BBE0F9009BE0F9053
:1040900008BE0F900FBE0F901F9018950F93DF93DF
:1040A000CF930F92CDB7DEB72FB72983F8941BBEFD
:1040B000FC0108ED04BF608389818FBF0F90CF9111
:1040C000DF910F910895282F30E0C9018C7F892B53
:1040D000E1F4862F8E7FC9F42C5F3F4F613059F495
:1040E00081E090E002C0880F991F2A95E2F7E0E096
:1040F000F7E08683089581E090E002C0880F991F61
:104100002A95E2F7E0E0F7E085830895282F30E074
:10411000C9018C7F892B61F42C5F3F4F81E090E0D7
:1041200002C0880F991F2A95E2F7E0E0F7E0878345
:10413000089520E030E0A0E0B7E060E240E253E024
:1041400017966C9317978CEA9DE0FA013197F1F777
:104150000197D9F72F5F3F4F2A30310589F708952E
:10416000482F50E0CA018C7F892B79F56623B9F47A
:104170004C5F5F4F81E090E09C01042E02C0220F53
:10418000331F0A94E2F744505040E0E2F7E0268300
:1041900002C0880F991F4A95E2F781830895613024
:1041A000A1F481E090E09C01042E02C0220F331F95
:1041B0000A94E2F7E0E2F7E022834C5F5F4F02C02F
:1041C000880F991F4A95E2F785830895282F30E0DC
:1041D000C9018C7F892B11F080E008958091280718
:1041E00090E002C0959587952A95E2F78170089531
:1041F000282F30E0C9018C7F892BD1F4862F8E7F48
:10420000B9F4613059F481E090E002C0880F991F41
:104210002A95E2F7E0E2F7E08583089581E090E0F7
:1042200002C0880F991F2A95E2F7E0E2F7E0868343
:104230000895282F30E0C9018C7F892B51F481E04B
:1042400090E002C0880F991F2A95E2F7E0E2F7E0BC
:1042500087830895A2E0B0E0E0E3F1E20C94B85760
:10426000282F30E0C901887F892B19F020E030E049
:1042700049C080E1E0E4F6E0868327703070220FC9
:10428000331F220F331F822F8068E0ECF8E0838316
:104290008091C20887FFFCCF80E1E0ECF8E08383E7
:1042A0008091C20887FFFCCFE0E4F6E080E18583DF
:1042B0008683E0ECF8E013828091C20887FFFCCF90
:1042C000DE0111969091C308E0ECF8E01382809132
:1042D000C20887FFFCCF8091C30811969C93119769
:1042E0008C9380E1E0E4F6E0858389819A8194FFF4
:1042F00002C09F7001C090619595879589839A83CC
:1043000029813A81C9012296E2E00C94D457282FE2
:104310008C7FB9F5CB018070987F892B39F0CB0168
:10432000809590958070987F892B59F580E1E0E623
:10433000F6E086832770E0ECF9E023838091C209E0
:1043400087FFFCCFCB01807F9F70E4E09595879538
:10435000EA95E1F7E0ECF9E083838091C20987FFF9
:10436000FCCF54E0660F771F5A95E1F7E0ECF9E0D7
:1043700063838091C20987FFFCCF80E1E0E6F6E02D
:1043800085830895A0E0B0E0E8ECF1E20C94AC572E
:10439000B82EC0E0D0E000E217E06624639422E08B
:1043A000722E94E0892E88E0982EB0E2EB2EB3E0D6
:1043B000FB2EC12CA7E0DA2EF0E2AF2EF8016782C7
:1043C00077828782978288EE93E0F7013197F1F741
:1043D0000197D9F78B2D0E942A21BC0128EE33E0EA
:1043E000F7013197F1F721503040D1F781E00E9479
:1043F0008721C0FF02C0F601A7822196CC33D105E8
:10440000E9F6CDB7DEB7EEE00C94C8570F93DF9313
:10441000CF930F92CDB7DEB78FB78983F8941BBEC9
:1044200021E089E790E0FC0108ED04BF2083898149
:104430008FBF0F90CF91DF910F910895A0E0B0E072
:10444000E4E2F2E20C94AE57982E00E060EAA62E69
:104450006FE0B62E50E8C52E5EE3D52EE12C47E086
:10446000F42E30E2832E1DC0143610F4BE0103C0BA
:10447000B5016C1B7D0B80E00E948721892D0E9475
:104480002A21BC0181E00E948721C6010197F1F732
:104490001F5F6496183C41F7F70187820F5F0E316A
:1044A00021F010E0C0E0D0E0DFCFCDB7DEB7ECE028
:1044B0000C94CA57BC0127E33CE040E050E008C040
:1044C000F9012F5F3F4FE491EE23D1F74F5F5F4F2C
:1044D0004617570721F0F9018491882389F700D006
:1044E0000F9283E39CE0EDB7FEB781839283238331
:1044F00034830E946C560F900F900F900F90089588
:10450000A0E0B0E0E6E8F2E20C94AF575C016A018B
:104510007B01922EE80189E29FE00E942A5687E6FD
:104520008883BB27AF2D9E2D8D2D8983CA829B82C8
:1045300085E48C83C50160E7A80125E0092D0E9470
:104540004B2FD5011D968C911D978823D1F71E9670
:104550008C911E978130B9F01E962C9100D00F924D
:10456000EDB7FEB731968CE09FE0ADB7BEB71196C0
:104570008D939C931297228313820E946C560F9006
:104580000F900F900F90DE0131E020E00DC0E501AB
:10459000ED81FE81E20FF11D908115968C911597AA
:1045A000981330E02F5F1196291588F3832F90E040
:1045B000CDB7DEB7EBE00C94CB57A0E0B0E0E3EE74
:1045C000F2E20C94AF575C016A017B01922EE80184
:1045D00088E49FE00E942A5687E68883BB27AF2D98
:1045E0009E2D8D2D8983CA829B8285E48C83C50193
:1045F00060E7A80125E0092D0E944B2FD5011D96EB
:104600008C911D978823D1F71E968C911E9781302F
:10461000B9F01E962C9100D00F92EDB7FEB73196EF
:104620008BE29FE0ADB7BEB711968D939C93129726
:10463000228313820E946C560F900F900F900F9060
:10464000DE0190E00AC0E501ED81FE81E90FF11D78
:10465000808114968C9314979F5F1196991598F307
:10466000CDB7DEB7EBE00C94CB57A0E0B0E0EBE3C6
:10467000F3E20C94B157EC016A017B01B22E89E69A
:104680009FE00E942A5682E4D8018C93BB27AF2D6D
:104690009E2D8D2DF8018183C282B38285E48483AF
:1046A000F5E0BF0ECE0160E7A8012B2D00E00E94CF
:1046B0004B2F8D858823E9F78E858130B1F02E85CB
:1046C00000D00F92EDB7FEB731968AE49FE0ADB708
:1046D000BEB711968D939C931297228313820E94EA
:1046E0006C560F900F900F900F90CDB7DEB7E9E0AA
:1046F0000C94CD57A0E0B0E0E0E8F3E20C94AF57A3
:104700005C016A017B01922EE80188E89FE00E942B
:104710002A5687E68883BB27AF2D9E2D8D2D898352
:10472000CA82892D86958B8386E48C83C50160E7D8
:10473000A80125E0092D0E944B2FD5011D968C91D3
:104740001D978823D1F71E968C911E978130B9F062
:104750001E962C9100D00F92EDB7FEB731968BE6E6
:104760009FE0ADB7BEB711968D939C9312972283AD
:1047700013820E946C560F900F900F900F90DE01E5
:1047800031E020E00DC0E501ED81FE81E20FF11D79
:10479000908115968C911597981330E02F5F1196A4
:1047A000291588F3832F90E0CDB7DEB7EBE00C94AA
:1047B000CB57A0E0B0E0EFEDF3E20C94AF575C0113
:1047C0006A017B01922EE80187EA9FE00E942A5647
:1047D00087E68883BB27AF2D9E2D8D2D8983CA82C6
:1047E000892D86958B8386E48C83C50160E7A801BB
:1047F00025E0092D0E944B2FD5011D968C911D9708
:104800008823D1F71E968C911E978130B9F01E96A1
:104810002C9100D00F92EDB7FEB731968AE89FE059
:10482000ADB7BEB711968D939C93129722831382D6
:104830000E946C560F900F900F900F90DE0190E049
:104840000AC0E501ED81FE81E90FF11D808114961A
:104850008C9314979F5F1196991598F3CDB7DEB797
:10486000EBE00C94CB57A0E0B0E0E9E3F4E20C9469
:10487000B157EC016A017B01B22E87EC9FE00E94E8
:104880002A5682E4D8018C93BB27AF2D9E2D8D2D07
:10489000F8018183C2828B2D8695838386E484838D
:1048A000F5E0BF0ECE0160E7A8012B2D00E00E94CD
:1048B0004B2F8D858823E9F78E858130B1F02E85C9
:1048C00000D00F92EDB7FEB7319689EA9FE0ADB701
:1048D000BEB711968D939C931297228313820E94E8
:1048E0006C560F900F900F900F90CDB7DEB7E9E0A8
:1048F0000C94CD57AFE0B0E0E0E8F4E20C94A85798
:104900007C018B01DB010D900020E9F76D0108941B
:10491000C108D108C61AD70AB3E0CB16D1040CF4EB
:10492000F2C0FB0181818B8382818C831D82CE0149
:1049300003968C879D87CE010396BE016F5F7F4FE4
:1049400040E150E00E94EA58D7016C93E981FA8176
:104950008C859D85E817F90709F4D5C080818823E7
:1049600009F0D1C097E0C916D1040CF4CCC0D8012D
:1049700013968C9113978B8314968C9114978C8338
:1049800015968C9115978D8316968C918E831F8228
:10499000CE010396BE016F5F7F4F40E150E00E9461
:1049A000EA58F70161837283E981FA818C859D85DC
:1049B000E817F90709F4A7C08081882309F0A3C08C
:1049C00099E0C916D1040CF49EC0D80117968C91B9
:1049D00017978B8318968C918C831D82CE0103963A
:1049E000BE016F5F7F4F40E150E00E94EA58F7013F
:1049F0006383E981FA818C859D85E817F90709F4BD
:104A000082C08081882309F07EC0D70111968C91E5
:104A1000119712969C9112977C90780E790E760ED3
:104A2000480117014424552499E0A92EB12CFE0118
:104A30003396EE87FF87CE0101968B87692E32C0B1
:104A40002C153D050CF05FC0D40119968C91199777
:104A50008B831A968C918C83E2E0F0E0AE0EBF1E41
:104A60001D82CE0103966B85762D40E150E00E94B9
:104A7000EA58D10114966C93E981FA818E859F855D
:104A8000E817F90709F43FC0A2E0B0E08A0E9B1EC8
:104A90000894211C311C80818823A9F5760E089486
:104AA000411C511CF701808190E095012F5F3F4F21
:104AB000481659062CF22C153D052CF5F801EA0D87
:104AC000FB1D80818B8381818C831D828E010D5F14
:104AD0001F4FC801BE016F5F7F4F40E150E00E9451
:104AE000EA5884E091E0E80EF91ED7016C93E98161
:104AF000FA81E017F10739F08081882321F471945D
:104B0000272D30E002C02FEF3FEFC9012F96E2E1E1
:104B10000C94C457A0E9B2E0E0E9F5E20C94A85780
:104B2000082FE82EFF24F701E85EF84DE081EE2320
:104B300009F4CDC2E33071F0E43089F0E23029F4B9
:104B400022E7822E29E2922E0EC095E7892E96E268
:104B5000992E09C088E0882E87E2982E04C017E9B4
:104B6000812E15E2912E83EC97E26AEC73E241E02C
:104B70000E94174C182F882349F086E19CE00E9480
:104B80002A56812F90E00E945A223DC000D00F92F9
:104B900084E09CE0ADB7BEB711968D939C931297BD
:104BA0001396ED92FC9214970E946C56198281E044
:104BB0008A830F900F900F900F90C401602FAE0169
:104BC0004F5F5F4F22E000E00E944B2FF40185858C
:104BD0008823E1F786858130B1F0268500D00F92D9
:104BE000EDB7FEB7319686EE9BE0ADB7BEB7119636
:104BF0008D939C931297228313820E946C560F9080
:104C00000F900F900F9088E893E120E233E0F901D4
:104C10003197F1F70197D9F789ED9BE00E942A5669
:104C20000FEF1FEFCC24DD2466247724B6E82B2E6B
:104C3000312C2C0E3D1EA6E84A2EA1E05A2E4C0E19
:104C40005D1EF2013496C357DD4FE883F983CD58DA
:104C5000D240CBC00894611C711CF101019000206E
:104C6000E9F7329780818A3009F41082D1018C9162
:104C70008A3309F0BAC0C201B1010E947A24F82E29
:104C8000C657DD4F8881CA58D240F81619F100D0B6
:104C90000F9285EA9BE0EDB7FEB781839283638232
:104CA00074820E946C560F920F92EDB7FEB7319648
:104CB0008AE79BE0ADB7BEB711968D939C93129790
:104CC000C657DD4F8881CA58D24082831382F4824E
:104CD000158282C0D20113962C911397222309F0DA
:104CE00053C01196ED90FC9012975701AA0CAB2C73
:104CF000AA1CBB08B194A016B106C1F0CD1491F066
:104D00001695102F0027179507950C0D111DA8015A
:104D100060E070E0DC18C4012D2D8E010F5F1F4F85
:104D20000E9435237FE7D72EDE20CD2C4E2D4F77E6
:104D30004C1508F4C42EF2015081252F30E0C357E2
:104D4000DD4FA881B981CD58D240E42FF0E03596EF
:104D500081E090E08C0F9D1FE80FF91F2C5F3F4F03
:104D6000240D351D02C08D918193A217B307D9F789
:104D7000852F90E0840F911D2D2D30E028173907E5
:104D80009CF5D42ED50E30C02130A9F4CD14B9F144
:104D90001695102F0027179507950C0D111DA801CA
:104DA00060E070E0DC18C4012D2D8E010F5F1F4FF5
:104DB0000E94352324C000D000D0EDB7FEB7319655
:104DC00088E39BE0ADB7BEB711968D939C93129785
:104DD00022831382648275820E946C56EDB7FEB7FF
:104DE0003696EDBFFEBF0BC08501C10160E071E0EA
:104DF00043EC57E20E94D84E892B09F02BCF83EC6D
:104E000097E240E050E060E070E00E94C13B182F64
:104E1000882349F08AE19BE00E942A56812F90E086
:104E20000E945A222CC18DE09BE00E942A56CC247D
:104E3000CA94DC2C00E010E066247724CE018A5767
:104E40009F4FC157DD4F88839983CF58D24056E892
:104E5000452E51E0552E4C0E5D1ED2011496C557BD
:104E6000DD4FA883B983CB58D240FFC00894611CA2
:104E7000711CC157DD4FE881F981CF58D2400190B4
:104E80000020E9F7329780818A3009F41082CA57EE
:104E9000DF4F8881C658D0408A3309F0E6C0C2018E
:104EA000B1010E947A24F82EC657DD4F8881CA5876
:104EB000D240F81619F100D00F928AED9AE0EDB7C2
:104EC000FEB781839283638274820E946C560F9234
:104ED0000F92EDB7FEB731968FEA9AE0ADB7BEB745
:104EE00011968D939C931297C657DD4F8881CA58AF
:104EF000D24082831382F4821582AEC0D20113960F
:104F00002C911397222309F065C01196ED90FC9027
:104F100012975701AA0CAB2CAA1CBB08B194AC1475
:104F2000BD0449F1011721F1A6015695542F4427DC
:104F300057954795400F511D60E070E0101BC4016C
:104F4000212F8E010F5F1F4F0E948022892B81F439
:104F500000D00F9282E99AE0EDB7FEB78183928389
:104F6000C382D4820E946C560F900F900F900F90C6
:104F70001E2D1F77012F4E2D4F77401708F4042F59
:104F8000D2015C91252F30E0C557DD4FA881B98152
:104F9000CB58D240E42FF0E0359681E090E08C0FC2
:104FA0009D1FE80FF91F2C5F3F4F240D351D02C0D8
:104FB0008D918193A217B307D9F7852F90E0840FC5
:104FC000911D212F30E0281739070CF04DC0142F08
:104FD000150F4AC0213079F5011741F1A601569508
:104FE000542F442757954795400F511D60E070E0BE
:104FF000101BC401212F8E010F5F1F4F0E948022C2
:10500000892BA1F400D00F9285E79AE0ADB7BEB727
:1050100011968D939C9312971396CD92DC921497D0
:105020000E946C560F900F900F900F9083E79AE0BC
:105030000E942A5624C000D000D0EDB7FEB73196AA
:1050400082E39AE0ADB7BEB711968D939C93129709
:1050500022831382648275820E946C56EDB7FEB77C
:105060003696EDBFFEBF0BC06501C10160E071E087
:1050700043EC57E20E94D84E892B09F0F7CE85E425
:105080008983C40160E7AE014F5F5F4F21E000E01C
:105090000E944B2FD4011D968C911D978823D1F728
:1050A0001E968C911E97813011F11E962C9100D086
:1050B0000F92EDB7FEB7319687E19AE0ADB7BEB774
:1050C00011968D939C931297228313820AC000D06D
:1050D0000F928CEF99E0EDB7FEB781839283E38264
:1050E000F4820E946C560F900F900F900F90C05753
:1050F000DD4FE2E10C94C457A0E9B2E0E2E8F8E247
:105100000C94A857082FE82EFF24F701E85EF84D0D
:10511000E081EE2309F4E1C2E33071F0E43089F07C
:10512000E23029F462E7862E69E2962E0EC055E73A
:10513000852E56E2952E09C048E0842E47E2942E33
:1051400004C037E9832E35E2932E83EA97E265EDBA
:1051500073E241E00E94174C182F882349F080EF3A
:105160009EE00E942A56812F90E00E945A2251C050
:1051700007FF12C084E0E0E6F6E0868384E690E074
:1051800020E233E0F9013197F1F70197D9F784E094
:10519000E0E6F6E085833DC000D00F928FED9EE003
:1051A000ADB7BEB711968D939C9312971396ED925F
:1051B000FC9214970E946C56198281E08A830F90AA
:1051C0000F900F900F90C401602FAE014F5F5F4FA3
:1051D00022E000E00E944B2FF40185858823E1F74F
:1051E00086858130B1F0268500D00F92EDB7FEB7ED
:1051F000319681EC9EE0ADB7BEB711968D939C932E
:105200001297228313820E946C560F900F900F907A
:105210000F9088E893E120E233E0F9013197F1F74C
:105220000197D9F784EB9EE00E942A560FEF1FEFFB
:10523000CC24DD246624772426E8222E312C2C0E63
:105240003D1E96E8492E91E0592E4C0E5D1EF2014E
:105250003496C357DD4FE883F983CD58D240CBC095
:105260000894611C711CF10101900020E9F732974C
:1052700080818A3009F41082D1018C918A3309F03F
:10528000BAC0C201B1010E947A24F82EC657DD4F80
:105290008881CA58D240F81619F100D00F9281E8DF
:1052A0009EE0EDB7FEB781839283638274820E9491
:1052B0006C560F920F92EDB7FEB7319686E59EE0E1
:1052C000ADB7BEB711968D939C931297C657DD4F1D
:1052D0008881CA58D24082831382F482158282C0A8
:1052E000D20113962C911397222309F053C01196E3
:1052F000ED90FC9012975701AA0CAB2CAA1CBB088E
:10530000B194A016B106C1F0CD1491F01695102FEE
:105310000027179507950C0D111DA80160E070E09E
:10532000DC18C4012D2D8E010F5F1F4F0E94332406
:10533000AFE7DA2EDE20CD2C4E2D4F774C1508F43A
:10534000C42EF2015081252F30E0C357DD4FA881D4
:10535000B981CD58D240E42FF0E0359681E090E05D
:105360008C0F9D1FE80FF91F2C5F3F4F240D351D3B
:1053700002C08D918193A217B307D9F7852F90E0D2
:10538000840F911D2D2D30E0281739079CF5D42E60
:10539000D50E30C02130A9F4CD14B9F11695102FD7
:1053A0000027179507950C0D111DA80160E070E00E
:1053B000DC18C4012D2D8E010F5F1F4F0E94332476
:1053C00024C000D000D0EDB7FEB7319686E19EE054
:1053D000ADB7BEB711968D939C931297228313821B
:1053E000648275820E946C56EDB7FEB73696EDBFAB
:1053F000FEBF0BC08501C10160E071E043EA57E2E6
:105400000E94D84E892B09F02BCF83EA97E240E027
:1054100050E060E070E00E94C13B182F882349F003
:1054200089EF9DE00E942A56812F90E00E945A2227
:105430002CC18CEE9DE00E942A56CC24CA94DC2C10
:1054400000E010E066247724CE018A579F4FC157B1
:10545000DD4F88839983CF58D240E6E84E2EE1E0B5
:105460005E2E4C0E5D1ED2011496C557DD4FA883EB
:10547000B983CB58D240FFC00894611C711CC1573E
:10548000DD4FE881F981CF58D24001900020E9F743
:10549000329780818A3009F41082CA57DF4F8881A1
:1054A000C658D0408A3309F0E6C0C201B1010E945B
:1054B0007A24F82EC657DD4F8881CA58D240F81694
:1054C00019F100D00F928AEB9DE0EDB7FEB7818312
:1054D0009283638274820E946C560F920F92EDB792
:1054E000FEB731968FE89DE0ADB7BEB711968D93AC
:1054F0009C931297C657DD4F8881CA58D240828349
:105500001382F4821582AEC0D20113962C911397A8
:10551000222309F065C01196ED90FC901297570177
:10552000AA0CAB2CAA1CBB08B194AC14BD0449F165
:10553000011721F1A6015695542F442757954795F9
:10554000400F511D60E070E0101BC401212F8E013F
:105550000F5F1F4F0E947A23892B81F400D00F9296
:1055600082E79DE0EDB7FEB781839283C382D48248
:105570000E946C560F900F900F900F901E2D1F776A
:10558000012F4E2D4F77401708F4042FD2015C9164
:10559000252F30E0C557DD4FA881B981CB58D240C7
:1055A000E42FF0E0359681E090E08C0F9D1FE80F2E
:1055B000F91F2C5F3F4F240D351D02C08D91819343
:1055C000A217B307D9F7852F90E0840F911D212FE3
:1055D00030E0281739070CF04DC0142F150F4AC0C2
:1055E000213079F5011741F1A6015695542F442732
:1055F00057954795400F511D60E070E0101BC401A6
:10560000212F8E010F5F1F4F0E947A23892BA1F457
:1056100000D00F9285E59DE0ADB7BEB711968D9392
:105620009C9312971396CD92DC9214970E946C561D
:105630000F900F900F900F9083E59DE00E942A56E7
:1056400024C000D000D0EDB7FEB7319683E19DE0D5
:10565000ADB7BEB711968D939C9312972283138298
:10566000648275820E946C56EDB7FEB73696EDBF28
:10567000FEBF0BC06501C10160E071E043EA57E283
:105680000E94D84E892B09F0F7CE85E48983C401A6
:1056900060E7AE014F5F5F4F21E000E00E944B2FBB
:1056A000D4011D968C911D978823D1F71E968C915D
:1056B0001E97813011F11E962C9100D00F92EDB7FC
:1056C000FEB7319688EF9CE0ADB7BEB711968D93CB
:1056D0009C931297228313820AC000D00F928DED03
:1056E0009CE0EDB7FEB781839283E382F4820E944F
:1056F0006C560F900F900F900F90C057DD4FE2E166
:105700000C94C4570F93DF93CF930F92CDB7DEB7AE
:1057100080E061E00E946320E0E4F6E088E08183BD
:1057200084E0828380E1818390E2918320E8218379
:105730008583E0E6F6E0818391832183858380EB96
:1057400080938006E0E8F6E01482E0EEF6E09183D4
:1057500080E48183218396838583268380EF8093F1
:105760000007E0E0F7E0848380E060E00E94B02082
:1057700081E060E00E94B02082E060E00E94B02002
:1057800083E060E00E94B020E0E5F0E087E48283FF
:1057900084EC858388E1809350008091510084FFE0
:1057A000FCCF8FB78983F8941BBE24E080E490E09F
:1057B000FC0108ED04BF208389818FBF88EE93E050
:1057C00020E233E0F9013197F1F70197D9F7E0E4EE
:1057D000FAE084E08093400A8FE39CE986A397A3D4
:1057E00082E0868388E58093C00880E1E0E4F6E00B
:1057F00086838FEBE0ECF8E083838091C20887FF1B
:10580000FCCF80EEE0ECF8E083838091C20887FF54
:10581000FCCFE0E4F6E080E1858386838FEDE0EC69
:10582000F8E083838091C20887FFFCCF80EEE0EC34
:10583000F8E083838091C20887FFFCCFE0E4F6E0C4
:1058400080E18583868380EEE0ECF8E083838091BD
:10585000C20887FFFCCFE0ECF8E013828091C20819
:1058600087FFFCCFE0E4F6E080E18583868380E873
:10587000E0ECF8E083838091C20887FFFCCF80E3EF
:10588000E0ECF8E083838091C20887FFFCCF90E1D1
:10589000E0E4F6E0958388E58093C009E0E6F6E071
:1058A0009683E0ECF9E093838091C20987FFFCCFF7
:1058B000E0ECF9E013828091C20987FFFCCF8FE111
:1058C000E0ECF9E083838091C20987FFFCCFE0E63A
:1058D000F6E080E1858386838CE0E0ECF9E0838369
:1058E0008091C20987FFFCCFE0ECF9E01382809140
:1058F000C20987FFFCCF83E0E0ECF9E0838380916D
:10590000C20987FFFCCF80E1E0E6F6E085830E94D4
:10591000972C0E94B3540E943C2E87E0E0EAF0E00E
:10592000828378940F90CF91DF910F910895109218
:105930005D2510925E2510925B2510925C251092D9
:105940005F2510926025109219251092182510924B
:105950001A25E0EAF8E08BE4868380EA878380E119
:10596000838383E0858388E18483089520915F2584
:1059700030916025C901089520915D2530915E2503
:1059800080915F2590916025892BD1F3E09163256B
:10599000F0916425E20FF31FE0812F5F3F4FF894F1
:1059A00080915F2590916025019780935F2590936A
:1059B0006025789480916125909162252817390798
:1059C00010F020E030E020935D2530935E258E2F8F
:1059D0000895282F9091182580911A258034E0F79A
:1059E000E92FF0E0E85EFA4D23839F5FF894809101
:1059F0001A258F5F80931A2581E1E0EAF8E083831E
:105A00007894903408F090E0909318250895CF93FF
:105A1000DF93EC0103C00E94E92C2196FE018491E2
:105A20008823C9F7DF91CF9108958DE00E94E92C7A
:105A30008AE00E94E92C0895CF92DF92FF920F93A3
:105A40001F93CF93DF936C0180915F259091602528
:105A5000892B11F4FF243CC00E94BC2CF82E82E359
:105A6000F81629F0C0E0D0E00F2D10E02EC00E9403
:105A7000BC2C182F0E94BC2C382F20E0C901810FAC
:105A8000911D8C01C0E0D0E0095F1F4F0DC08091D7
:105A90005F2590916025892BD1F30E94BC2CF601E3
:105AA000EC0FFD1F80832196C017D10780F310C033
:105AB00080915F2590916025892BD1F30E94BC2CA9
:105AC000F601EC0FFD1F80832196C017D10780F3EC
:105AD0008F2D90E0DF91CF911F910F91FF90DF907C
